:100000000EC015C014C013C012C011C010C00FC064
:100010000EC00DC00CC00BC00AC009C008C011241E
:100020001FBECFE5D2E0DEBFCDBF22D0D7C0E8CF24
:10003000823051F0833018F4813071F407C084307D
:1000400039F0883049F406C085E0089582E00895CB
:1000500084E0089583E0089580E00895FC01DB01C9
:10006000CA01BF016FD0820F931FBD017DD00895DB
:100070006F927F928F929F92AF92BF92CF92DF92B8
:10008000EF92FF920F931F93DF93CF93CDB7DEB71D
:10009000C456D0400FB6F894DEBF0FBECDBF8EE27F
:1000A00090E076D06C0187E087BB18BAEE24FF247D
:1000B0004E010894811C911C99E1A92EB12C88EA6B
:1000C000682E81E6782EC60160E070E841E052E0DB
:1000D00021E030E0C3DF6C018EE290E0B6015DD03C
:1000E000F401EE0DFF1D2D2D22952695277081E040
:1000F00090E002C0880F991F2A95E2F7808300E004
:1001000010E0F401E00FF11F808192DF88BB88E8E6
:1001100093E1F5013197F1F70197D9F718BAC301C7
:100120000197F1F70F5F1F4FE016F10650F780E1DE
:1001300097E2F5013197F1F70197D9F70894E11C9F
:10014000F11CC1CF5527002480FF02C0060E571FA7
:10015000660F771F6115710521F0969587950097B9
:1001600099F7952F802D0895AA1BBB1B51E107C05D
:10017000AA1FBB1FA617B70710F0A61BB70B881F37
:10018000991F5A95A9F780959095BC01CD010895C6
:10019000A8E1B0E042E050E005C012D0272F11C026
:1001A000DC01CB01FC01E199FECF06C0FFBBEEBB39
:1001B000E09A31960DB20D9241505040B8F7089533
:1001C000262FE199FECF1CBA9FBB8EBB2DBB0FB66D
:1001D000F894E29AE19A0FBE01960895F894FFCF41
:00000001FF
