:100000000EC028C027C026C025C024C023C022C0DF
:1000100021C020C01FC01EC01DC01CC01BC0112499
:100020001FBECFE5D2E0DEBFCDBF10E0A0E6B0E05E
:10003000E8ECF4E002C005900D92A236B107D9F7C2
:1000400010E0A2E6B0E001C01D92A936B107E1F7C9
:10005000CCD038C2D5CF823051F0833018F4813003
:1000600071F407C0843039F0883049F406C084E068
:10007000089583E0089586E0089581E0089580E082
:1000800008951F93CF93DF9318B3C0916500D0916B
:10009000660081E090E00C2E02C0880F991F0A9440
:1000A000E2F7D9DF182B18BB88EA91E60197F1F740
:1000B00088B3807F88BB84ED90E30197F1F7C3306C
:1000C000D10519F41092600005C0209719F481E061
:1000D0008093600080916000882311F0219601C018
:1000E0002197D0936600C0936500DF91CF911F9157
:1000F0000895BF92CF92DF92EF92FF920F931F93DA
:10010000CF93DF93EE24FF2491E0C92ED12C81E21E
:10011000B82E03E01FC018B3C6010C2E02C0880F12
:10012000991F0A94E2F797DF182B18BB8B2D8A953D
:10013000F1F788B3807F88BB802F8A95F1F72196ED
:10014000C430D10541F70894E11CF11C84E6E8169F
:10015000F10419F0C0E0D0E0DECFDF91CF911F9124
:100160000F91FF90EF90DF90CF90BF900895FC012A
:10017000DB01CA01BF015AD1820F931FBD0168D1B3
:100180000895369A349BFECF349A24B135B1C90113
:100190000895F7DF9C01845F9140459710F421E0BA
:1001A00016C0C90188559240459710F422E00FC04F
:1001B000C90184599240459710F424E008C0265C98
:1001C00032402531310510F020E001C028E0809157
:1001D0006400281711F420E002C0209364008AEF25
:1001E00090E00197F1F7822F08952F923F924F925E
:1001F0005F926F927F928F929F92AF92BF92CF92B7
:10020000DF92EF92FF920F931F93DF93CF93CDB7BF
:10021000DEB7C456D0400FB6F894DEBF0FBECDBFD8
:100220008EE290E029D16C0187E087BB18BA82E0AA
:1002300087B983E886B988249924AA24BB2449E194
:10024000442E512C38EA632E31E6732E24ED222EF3
:1002500020E3322E04C088249924AA24BB240091D0
:100260006200109163000130110509F049C0C60118
:1002700060E070E841E052E021E030E078DF6C01BE
:100280008EE290E0B601FDD0E1E0F0E0EC0FFD1F62
:10029000E80DF91D8D2D82958695877002C0000F9F
:1002A000111F8A95E2F70083EE24FF2418B3E1E0E2
:1002B000F0E0EC0FFD1FEE0DFF1D8081CCDE182B52
:1002C00018BB88E893E1F2013197F1F70197D9F76C
:1002D00088B3807F88BBC3010197F1F70894E11CC4
:1002E000F11C8E149F0410F70894811C911C82E06D
:1002F00090E0909363008093620084EC99E093C057
:100300000230110509F053C044DFE82EFF24E11448
:10031000F10421F488B3807F88BBA1CF18B39BDEA2
:10032000182B18BBF1013197F1F798B3907F98BB68
:10033000F1013197F1F798B3982B98BBC101019760
:10034000F1F788B3807F88BBE1E0F0E0EC0FFD1FA0
:10035000EA0DFB1D808190E0E816F906B9F4C401AE
:100360000197A816B90671F480E197E2F20131977E
:10037000F1F70197D9F781E090E0909363008093C3
:1003800062006BCF0894A11CB11C69CF109263006E
:1003900010926200AEDEC3010197F1F7AADE88E891
:1003A00093E1F2013197F1F70197D9F754CF012B7F
:1003B00001F50894C11CD11C8EE290E0B60161D019
:1003C00060DEDFDE893C910508F449CF81E090E0F2
:1003D00090936300809362008CDEC3010197F1F774
:1003E00088DE88E893E1F2013197F1F70197D9F7B8
:1003F00036CF18B381E02FDE182B18BBC30101974D
:10040000F1F788B3807F88BBC3010197F1F718B378
:1004100088E021DE182B18BBC3010197F1F788B3E0
:10042000807F88BBC3010197F1F719CF55270024BE
:1004300080FF02C0060E571F660F771F61157105FA
:1004400021F096958795009799F7952F802D08951F
:10045000AA1BBB1B51E107C0AA1FBB1FA617B707EA
:1004600010F0A61BB70B881F991F5A95A9F7809506
:100470009095BC01CD010895A8E1B0E042E050E0C4
:1004800005C012D0272F11C0DC01CB01FC01E1997E
:10049000FECF06C0FFBBEEBBE09A31960DB20D92C7
:1004A00041505040B8F70895262FE199FECF1CBA6D
:1004B0009FBB8EBB2DBB0FB6F894E29AE19A0FBE9C
:0804C00001960895F894FFCFA6
:0204C800010031
:00000001FF
